:020000040000FA
:1070000080350020ED710000017D0000F771000067
:107010000000000000000000000000000000000070
:107020000000000000000000000000000D7D0000D6
:107030000000000000000000157D00001D7D000024
:10704000257D00002D7D0000357D00003D7D000088
:10705000457D00004D7D0000557D00005D7D0000F8
:10706000657D00006D7D0000757D00007D7D000068
:10707000857D00008D7D0000957D00009D7D0000D8
:10708000A57D0000AD7D0000B57D0000BD7D000048
:10709000C57D0000CD7D0000D57D0000DD7D0000B8
:1070A000E57D0000ED7D000000F002F800F057F8EB
:1070B0000CA030C8083824182D18A246671EAB460D
:1070C00054465D46AC4201D100F049F87E460F3E81
:1070D0000FCCB6460126334200D0FB1AA246AB467F
:1070E00033431847C0960000E096000000230024B8
:1070F00000250026103A01D378C1FBD8520700D3EF
:1071000030C100D50B60704710B5642902D107F07B
:10711000F1FE10BD752902D107F0ECFE10BD7829F3
:1071200002D107F01DFF10BD632902D108F066FEF1
:1071300010BD732902D108F069FE10BD002010BDFA
:107140001FB508F02DF808F0D1FD04000020002143
:1071500008F0D2FF401C60601FBD10B510BD08F0E4
:1071600055FF1146FFF7ECFF03F05BF808F07CFFDA
:1071700003B4FFF7F2FF03BC00F0C0FD30B40C49CC
:107180000C684A6823681068C0181060241D121D1E
:107190008C4207D28A4208D20C604A6030BC400060
:1071A000400870470C00DC3CF6E70A00DC3AF3E7E5
:1071B0001829002070B505460C46164602E00FCC93
:1071C0000FC5103E102EFAD2082E02D303CC03C5F1
:1071D000083E042E07D301CC01C5361F03E02178F9
:1071E0002970641C6D1C761EF9D270BD074880475B
:1071F00007480047FEE7FEE7FEE7FEE7FEE7FEE79B
:1072000004480549054A064B7047000037720000E4
:10721000A97000008029002080350020802D0020EA
:10722000802D002036480068704735484068704718
:107230003448006A704710B53348816B334A116196
:10724000C16B304841600021016241698907CA0F62
:10725000012191404269D207D20F9140CAB24169DF
:1072600040698904890E51438002294A800E5043A7
:1072700008F077F92249086010BDF8B5254F0126BE
:10728000204D01280FD000202862214C10462146B5
:1072900008F067F9C0B2012808D8EE616F610121DA
:1072A0000A46134619E02E620C46EFE70021E96119
:1072B000FF2101318006800A084368616869800700
:1072C000C00F86406869C007C00F86406869F2B287
:1072D0008004810E68698002830E2046084C514369
:1072E0006060584308F03DF92060F8BD30B4064BAB
:1072F0009C6B064D2C61DB6B024C636030BCBCE7C1
:10730000000000200010004180FD03000012004139
:1073100000127A000001020041210906002801D074
:10732000032000E001200860704741210906486001
:1073300070470120412109068860704741200006FE
:10734000C06880B270474120000600690006000E48
:1073500000D0012070470020DEE70000204A204BCB
:1073600001218032984201D1116070471C4B2033BB
:10737000984201D1116270471A4A1A4B80329842E2
:10738000F2D0184B20339842F4D0704782688023A3
:107390009A4382600A68026082684B689B011343CB
:1073A0008A6892001A43CB6809695B00134319434A
:1073B000EF2211408160704720220129816802D0AC
:1073C0009143816070471143FBE70121C160704721
:1073D0004069C0B270478168802211438160704764
:1073E0000010004000200040F0B5212200231026AC
:1073F0005206904201D16A4A08E0432212069042A6
:1074000002D1674A403201E0654A803201242546B4
:107410000F689D402F40AF4243D10F79012F0DD00F
:1074200045614D79AD070DD59C001559AD08AD00EE
:107430001551155902273D4315510BE007692F439C
:107440000761EEE79D005759BF08BF0057515759D4
:10745000274357514C79640704D59C0015590427DC
:107460003D4303E09C0015590427BD4315514C7959
:10747000A40604D59C00155920273D4303E09C0039
:1074800015592027BD4315514C79640604D59C003D
:10749000155940273D4303E09C0015594027BD4343
:1074A00015515B1CB342B1D3F0BD3E4901600021D0
:1074B00001716221417170470246126800200A4240
:1074C00000D0012070470246526800200A4200D0D6
:1074D000012070470A06920D012312189B02D21850
:1074E00011600A0A920010185A0080180160704753
:1074F00010B50B069B0D0124CA431B18A4021B19CF
:107500001A60090A8900081861004018026010BD5D
:10751000F0B50126244D002334469C400C420ED089
:10752000002810D0012811D01F4C9F0080343C1936
:107530002768BF08BF0027602768174327605B1CC8
:10754000102BE9DBF0BD9C006419F1E79C00641985
:10755000276CBF08BF002764276C17432764EEE73A
:107560007CB504461E460D466846FFF79EFF6846FA
:107570000095027169462046FFF736FF212040063C
:10758000844201D1002006E043200006844201D15C
:10759000012000E0022032462946FFF7B9FF7CBDFA
:1075A00000300041FFFF000000200041F8B5044614
:1075B000006B0E46400840002063FFF739FE504F35
:1075C0000125002846D03D61FFF72CFE7A69294647
:1075D000914007F0C6FF07463068000108F060FBE5
:1075E0000090384608F05CFB009908F065FA074601
:1075F00008F012FB009008F053FB394608F0D8FD64
:10760000062108F051FB08F02DFA00223D4B08F04E
:10761000D5F908F003FA014600986062A162E06AB9
:10762000EE218843B188F288114332890243E06A2F
:1076300011430843E062206B3349B28908407189E5
:1076400011430143206B08432063206B28432063D0
:107650000020F8BD022038617869294681402B4816
:10766000B7E7006880B270470246526800200A42BD
:1076700000D001207047002A826B01D00A4300E04D
:107680008A43826370470246126C00200A4200D08F
:1076900001207047426C0A434264704710B50446AB
:1076A0001B48016B02290AD0006B032807D0FFF7A3
:1076B000B9FD214607F055FF1649086110BDFFF7D7
:1076C000B4FDF6E710B5FFF7E9FF12498868032219
:1076D0008008800010438860002010BD0D494A6872
:1076E000D207FCD108607047016082691207FCD4A0
:1076F0000846704700B50346FFF7F0FF184600BD87
:10770000401100410000E03FFE3CFFFF00127A0004
:107710000010004100600040007870470170704721
:1077200030B5002405E00D19ADB2455D1555641C5A
:10773000A4B29C42F7D330BD70B5002405E00E1909
:10774000155DB6B28555641CA4B29C42F7D370BDDA
:1077500070B514000FD01A4A83049E18F2684007CF
:1077600095B2184AC00A10430A4623462946FFF735
:10777000E3FF2819F06070BD70B514000FD0104AF7
:1077800083049E18B26A400795B20F4AC00A10439C
:107790000A4623462946FFF7C3FF2819B06270BD89
:1077A00010B500290BD0064A83049B189A6A40073B
:1077B000054CC00A5118204389B20818986210BDC0
:1077C0000002014600000246000003467047704771
:1077D000704770470078704701707047F0B593B0FC
:1077E000F748FFF799FF1190F548401EFFF794FF07
:1077F000F34C1090A41E2046FFF78EFF651E0F90DD
:107800002846FFF789FF0E90A01DFFF785FF0D901A
:10781000601DFFF781FF0C90E9480830FFF77CFFFF
:107820000B90E748C01DFFF777FFE54E0A90B61DA5
:107830003046FFF771FF0990E01DFFF76DFF0890DC
:10784000B01DFFF769FF0790701DFFF765FF0690F9
:10785000301DFFF761FF0590F01CFFF75DFF0490FE
:10786000D7481030FFF758FFD54F03900F373846F1
:10787000FFF752FF0290781EFFF74EFF0190F01DB8
:10788000FFF74AFF00908021CE48FFF747FFCD4821
:10789000FFF742FFA01C1199FFF740FF601C1099F1
:1078A000FFF73CFF20460F99FFF738FF28460E9957
:1078B000FFF734FFA01D0D99FFF730FF601D0C99F5
:1078C000FFF72CFFB01C0B99FFF728FF701C0A99DB
:1078D000FFF724FF30460999FFF720FFE01D0899C4
:1078E000FFF71CFFB01D0799FFF718FF701D0699E1
:1078F000FFF714FF301D0599FFF710FFF01C0499E6
:10790000FFF70CFF781C0399FFF708FF3846029930
:10791000FFF704FF781E0199FFF700FFF01D0099A3
:10792000FFF7FCFE13B0F0BDF8B50D460646002487
:10793000FFF754FF002E14D00022B05C521C001937
:1079400052B244B2082AF8DB102C17DC9E4F0024F8
:10795000A004315DC019FFF7E1FE641C64B2082C7D
:10796000F6DB002D19D0002108462A5C401C511876
:1079700040B249B20828F8DB102902DD0020C043DC
:10798000F8BD914E00242036A004295D8019FFF730
:10799000C5FE641C64B2082CF6DB0020F8BD10B5EF
:1079A000044687484130FFF7B7FE207084483D30D9
:1079B0000068608010BD10B501780446002903D02E
:1079C0007F484130FFF7AAFE7D4960883D3108605D
:1079D00010BD10B57B48FFF79FFE10BD70B5044683
:1079E000C720044202D00020C04370BD754D284618
:1079F000FFF792FE204301462846FFF78FFE002046
:107A000070BD10B504466E48FFF786FE20706C48C6
:107A1000401EFFF781FE60706948801EFFF77CFE04
:107A2000A0706748C01EFFF777FEE0706448001D35
:107A3000FFF772FE20716248C01CFFF76DFE607197
:107A40005F480830FFF768FEA0735D48C01DFFF770
:107A500063FEE0735A48801DFFF75EFE20745848AD
:107A6000401DFFF759FE607455480C30FFF754FE77
:107A7000A07253480B30FFF74FFEE07250480A30B7
:107A8000FFF74AFE20734E480930FFF745FE60734A
:107A90004B481030FFF740FEA07149480F30FFF708
:107AA0003BFEE07146480E30FFF736FE2072444838
:107AB0000D30FFF731FE607244480178A1744178BF
:107AC000E17481782175C07860754048401E007867
:107AD000A07510BD10B5044601783948FFF71EFEA9
:107AE00037486178401EFFF719FE3548A178801E9F
:107AF000FFF714FE3248E178C01EFFF70FFE304852
:107B00002179001DFFF70AFE2D486179C01CFFF79F
:107B100005FE2B48A17B0830FFF700FE2848E17BDB
:107B2000C01DFFF7FBFD2648217C801DFFF7F6FDF9
:107B30002348617C401DFFF7F1FD2148A17A0C30FC
:107B4000FFF7ECFD1E48E17A0B30FFF7E7FD1C481C
:107B5000217B0A30FFF7E2FD1948617B0930FFF70E
:107B6000DDFD1748A1791030FFF7D8FD1448E17901
:107B70000F30FFF7D3FD1248217A0E30FFF7CEFD0C
:107B80000F48617A0D30FFF7C9FD1048A17C0170E4
:107B9000E17C4170217D8170617DC1700B49A07DC8
:107BA000491E087010BD10B50C46030008F08FFA8E
:107BB00006041014181C20250846FFF78BFF1AE056
:107BC0000360004600230046000201461900002021
:107BD0000846FFF716FF0EE00878FFF7FFFE10BD1E
:107BE000FFF7F7FE207006E00846FFF7E4FE02E02C
:107BF0000846FFF7D4FE002010BD0020C04310BD92
:107C0000F0B587B004F074F904466D46A81D01F084
:107C1000BFFC03A80230069001F0C5FC02A80230A8
:107C2000074601F0CBFC04A80230064601F0D1FC67
:107C3000214606221731684604F075FA20460422D0
:107C4000A91D1D3004F073FA204604222130069944
:107C500004F06DFA204604223946253004F067FA14
:107C6000204604223146653004F061FA6034E07841
:107C7000002801D0022000E001206946887500201C
:107C8000FFF791FF07B0F0BD7047000070477047E5
:107C9000704710B502F0F1FC10BD7047704710B589
:107CA000104806F079F810BD10B50F4806F074F8CA
:107CB00010BD7047704770477047704770477047F6
:107CC000704710B505F0EBFF10BD70477047704767
:107CD00070477047704770477047704770477047EC
:107CE0007047704700C0004000D0004010B5C0B2DF
:107CF000FFF700FD10BD0020C0437047FEE770474E
:107D000010B5FFF7C3FF10BDFF00000010B5FFF76F
:107D1000BEFF10BD10B5FFF7BBFF10BD10B5FFF7DC
:107D2000B8FF10BD10B5FFF7B8FF10BD10B5FFF7D5
:107D3000B5FF10BD10B5FFF7B2FF10BD10B5FFF7CE
:107D4000B3FF10BD10B5FFF7B4FF10BD10B5FFF7BE
:107D5000B1FF10BD10B5FFF7AEFF10BD10B5FFF7B6
:107D6000ABFF10BD10B5FFF7A8FF10BD10B5FFF7B2
:107D7000A5FF10BD10B5FFF7A2FF10BD10B5FFF7AE
:107D80009FFF10BD10B5FFF79CFF10BD10B5FFF7AA
:107D90009CFF10BD10B5FFF799FF10BD10B5FFF7A0
:107DA00096FF10BD10B5FFF793FF10BD10B5FFF79C
:107DB00090FF10BD10B5FFF78DFF10BD10B5FFF798
:107DC0008AFF10BD10B5FFF787FF10BD10B5FFF794
:107DD00084FF10BD10B5FFF781FF10BD10B5FFF790
:107DE0007EFF10BD10B5FFF77BFF10BD10B5FFF78C
:107DF00078FF10BD70B50446082802D90020C043A2
:107E000070BDFA48A604301805461021FFF786FC1D
:107E10002846FFF781FC0028FAD1F4481F211830CA
:107E20003018FFF77BFCF24801218288A1408A4389
:107E30008280F04A002061005052ED49891D0855AA
:107E4000EA48203034182046FFF766FC0028FAD1B3
:107E5000012070BDF8B51C4616460F460546082899
:107E600002D90020C043F8BD012F06D0022F04D054
:107E7000042F02D00420C043F8BD6007810FDE4804
:107E8000FAD1002C0CD0012F02D0022F08D103E030
:107E900021210C42F0D003E0A10601D52106EBD54B
:107EA0002846FFF7A7FF21090901D0483943AF044D
:107EB00010383818FFF732FC002E0AD1CC48CF4AD0
:107EC0000688711C89B20180914202D10321890385
:107ED0000180C648F03038184661C448012138187E
:107EE0000646FFF71BFC3046FFF716FC0028FAD1C8
:107EF000BF48E107C90F4288A940114341800121D1
:107F00008288A9408A438280BA4A00206900505280
:107F1000B749891D4855B54820303C182046FFF721
:107F2000FBFB0028FAD068B2F8BD70B506460828F9
:107F300002D90020C04370BDAC48B40410382018EA
:107F4000FFF7EAFB0007000F012802D00420C0431E
:107F500070BDA648203020180546FFF7DDFB13282A
:107F600002D00220C04370BDA04802212018044660
:107F7000FFF7D4FB2046FFF7CFFB0028FAD12846B5
:107F8000FFF7CAFB142805D03046FFF733FF032064
:107F9000C04370BD012070BDF7B50D4607460828E7
:107FA00002D90020C043FEBD9048BC041038201800
:107FB000FFF7B2FB0007000F012802D00420C043E6
:107FC000FEBD8A48203020180646FFF7A5FB13287F
:107FD00002D00220C043FEBD29786A7808028018CA
:107FE000AA7800028018EA7800028018421C32D079
:107FF000002830D00298002830D081482018FFF7A0
:108000008DFB7F486978401E2018FFF787FB7C486E
:10801000A978801E2018FFF781FB7948E978C01EF7
:108020002018FFF77BFB7649029827396118086210
:108030006E48042120180546FFF770FB2846FFF71D
:108040006BFB0028FAD16A4901204988B8400842F0
:108050001CD00020FEBD0B20C043FEBD0A20C04343
:10806000FEBD2846FFF758FB000708D55F480821EA
:1080700018302018FFF752FB0C20C043FEBD3046DD
:10808000FFF74AFB002804D1001FFEBD57481030FF
:1080900025183046FFF740FB1728E2D10120FEBD2E
:1080A00070B50646082802D90020C04370BD4F486D
:1080B000B50410382818FFF72FFB0007000F012820
:1080C00002D00420C04370BD484808212818044647
:1080D000FFF724FB2046FFF71FFB0028FAD1444995
:1080E00001208A88B04082438A80498808420CD0A7
:1080F000002070BD2046FFF70FFB00070BD5304670
:10810000FFF778FE0C20C04370BD384810302C18A3
:10811000364820302D182846FFF7FEFA0028E9D10E
:10812000012070BDF7B582B002981446082803D923
:108130000020C04305B0F0BD86042C48103830182C
:10814000FFF7EAFA0007000F012802D00420C0431D
:10815000F0E7002C0CD02548203030180190FFF7B4
:10816000DBFA172807D01C2805D00620C043E1E71A
:108170000D20C043DEE7029801251D4F8540B888D9
:10818000054211D0194810303018FFF7C5FAC00663
:10819000C00EC10621D51548102118303018FFF740
:1081A000BDFAB888A843B8801548D9303018009077
:1081B000FFF7B2FA8006000C844200D9044600980A
:1081C000406887B20198FFF7A7FA17281AD01C2831
:1081D00018D00298FFF70EFEC7E7000718D50298DF
:1081E000FFF708FE0C20C043A4E700001000014682
:1081F0000800002030030020FAFFFFFFF0FF00001E
:1082000027010146FE484088054203D0BC4201D9FF
:1082100000208FE7BC42D2D8224603990298FFF78C
:1082200097FAF848202130180646FFF777FA3046CB
:10823000FFF772FA0028FAD1F14881880D43858052
:10824000204677E7F7B582B002981446082802D98D
:108250000020C0436EE78704EA4810383818FFF75B
:108260005BFA0007000F012802D00420C04361E739
:10827000002C19D0E4483818FFF74EFA8006000C9D
:10828000A04200D20446DF48203038180090DE4873
:1082900020383E18706A85B20098FFF73DFA17281B
:1082A00015D01C2803D00CE00D20C04342E7002D60
:1082B0001AD13046FFF730FA7168800289B28842DD
:1082C00005D10298FFF796FD0620C04332E70299D8
:1082D00001208840CA494988084203D0002D03D1B3
:1082E000002027E7002DD5D0A54200D22C462246FB
:1082F00003990298FFF740FAC24840213818054612
:10830000FFF70CFA2846FFF707FA0028FAD12046B3
:1083100010E7FFB583B003981E461546082803D919
:108320000020C04307B0F0BD8404B64810382018C0
:10833000FFF7F2F90007000F022804D0042802D04A
:108340000420C043EEE7002D1DD030787178000284
:108350004018B17800024018F1780002C84202D1FA
:108360000B20C043DEE70C9800280FD0A548203032
:1083700020180746FFF7D0F942280AD0222808D053
:108380000620C043CEE70D20C043CBE70A20C04300
:10839000C8E79D483178F9382018FFF7BFF99A48A7
:1083A0007178FA382018FFF7B9F99748B178FB3897
:1083B0002018FFF7B3F99448F178FC382018FFF73C
:1083C000ADF990490C98F031611808628E48203858
:1083D00020180190FFF7A0F98006000C854200D913
:1083E000054603990120884000900198406886B2B4
:1083F0003846FFF791F9002808D08149009849884C
:10840000084206D0B54204D900208BE70320C043C0
:1084100088E7B542E9D82A4604990398FFF798F906
:108420007848202120180746FFF778F9754818305A
:1084300026183846FFF770F90028FAD17148103035
:1084400024182046FFF768F9C006C00EC10605D5FE
:1084500030461021FFF762F9284663E70007F0D5A0
:1084600030460821FFF75AF90C20C0435AE7FFB500
:10847000002485B00646082802D9601E09B0F0BD68
:108480006048B50410382818FFF746F90490000733
:10849000000F022804D0042802D00420C043EDE7D6
:1084A0000798002805D059487700C05B002803D002
:1084B00022E00D20C043E1E75348203828180390FC
:1084C0005048203028180125B54002900398406A92
:1084D00084B20298FFF720F9002806D04848408867
:1084E000054207D0002C03D006E00320C043C5E7B7
:1084F0000020C3E7002CE9D041480021801D8155B0
:108500000498B20441073F48490F151802291FD0AB
:10851000042957D021463046FFF742F93B48C4535F
:1085200028464021FFF7FAF82846FFF7F5F800281B
:10853000FAD13648C15B091B0904090CC15305D0A7
:108540002F480122801D815D11438155204695E70A
:108550002E4CE05B002865D1082269463046FFF7C3
:108560000BF928464021FFF7D9F82846FFF7D4F841
:108570000028FAD168460178089801706846417869
:108580000898417068468178089881706846C1787B
:108590000898C17068460E99007908800102684603
:1085A000407908180E99088068468079010268466B
:1085B000C0790818E05332E0224630460699FFF7AA
:1085C000DBF8ADE7114CE05B00282BD102226946B5
:1085D0003046FFF7D1F828464021FFF79FF828469C
:1085E000FFF79AF80028FAD1684600780102684639
:1085F0004078081880B20649E05388420FD909E054
:10860000080000201000014620020146300300202F
:10861000EA0500003046FFF7EDFB72482EE772498D
:1086200080208855E45B07988442C5D90446C3E797
:10863000F8B51546082802D90020C043F8BD8404C7
:108640006A4B6A4A6A4880330427E618A218201841
:10865000FF430B0007F03BFD084F050910421316BE
:10866000444F62482978083002E060482978001DAC
:108670002018FFF753F831E0288810612EE0288891
:1086800010622BE0FFF748F80007000F01282DD1FA
:108690003046FFF741F8002802D00120C043F8BD62
:1086A00053482221103020180546FFF737F850486C
:1086B000203026180DE03046FFF72EF8000708D5C9
:1086C0004B48082128302018FFF728F80C20C04319
:1086D000F8BD2846FFF720F80028ECD10120F8BDAE
:1086E000FFF71AF80007000F012801D03846F8BD3F
:1086F00029783046BDE70920C043F8BDF8B51446D7
:108700000646082802D90020C043F8BDB504394BFD
:108710003748364AEF182818AA180B0007F0D7FC7C
:108720000D080D121517305E323E404248525E0071
:10873000FEF7F2FF0009000102E02C48083033E0A8
:1087400020703DE02948001D2EE01069F8E7274819
:1087500027302818FEF7E0FF20702448263028181C
:10876000FEF7DAFF6070214825302818FEF7D4FFA5
:10877000A0701E4824302818FEF7CEFFE0701FE0DE
:10878000106A1CE0FEF7C8FF0007000F01281FD188
:10879000164880302818FEF7BFFF10E078680EE01A
:1087A000786A0CE0124830302818FEF7B5FFC7E7AA
:1087B000FEF7B2FF0128F3D00F497000085A20805D
:1087C0000120F8BDFEF7A8FF0007000F012802D026
:1087D0000420C043F8BD0448805DB1E70120C043D8
:1087E000F8BD000017FCFFFF0E000020000101464D
:1087F00000000146000201463003002070B5744CB1
:1088000005462088286161882846FEF763FE01201E
:1088100001F0FFFC61882846FEF76AFE012001F0A6
:10882000F8FC70BDF8B507460020694D04464600C7
:1088300069883846FEF74EFE012001F0EAFC69889F
:108840003846FEF755FE012001F0E3FC2988384642
:10885000FEF732FE3043641C102CE8D3F8BD70B52F
:108860005B4C054620886861012001F0D2FC6188DC
:108870002846FEF72FFE012001F0CBFC6188284638
:10888000FEF736FE012001F0C4FC70BDF8B50746C6
:1088900016462020801B81400C464D4D18E029884B
:1088A000002C384602DAFEF715FE01E0FEF720FE46
:1088B000012001F0AEFC69883846FEF70BFE01206E
:1088C00001F0A7FC69883846FEF712FE6400761EA8
:1088D000002EE4D1F8BD70B50C46164600210546C1
:1088E0002022C943FFF7D2FF042205212846FFF7C3
:1088F000CDFF3748052241682846FFF7C7FF05220C
:1089000021462846FFF7C2FF022211462846FFF7FC
:10891000BDFF102231462846FFF7B8FF2846FFF773
:108920006DFF70BDF8B5002543273F0600240021E8
:108930002022C9433846FFF7A9FF04220621384602
:10894000FFF7A4FF052221463846FFF79FFF0522C7
:1089500001213846FFF79AFF3846FFF780FF384677
:10896000FFF760FF06463846FFF748FF002E02D0AB
:108970001848864209D1641C082CD8DD6D1CEDB264
:1089800015A006F043FA022DD0D32046F8BD7CB5E1
:10899000054614460E466846FEF787FD30462043DE
:1089A00000900120694608712846FEF71DFD01224E
:1089B00021461046FEF7ACFD012231461046FEF777
:1089C000A7FD034D6E802C80FFF7ACFF68607CBD77
:1089D00040000020FFFF00000D0A706879206964E4
:1089E00020646574656374206572726F7221210D55
:1089F0000A00000010B5FE4CFE482178FEF78EFEFE
:108A0000FC486178401EFEF789FEFA48A178801E76
:108A1000FEF784FEF748E178C01EFEF77FFEF548BA
:108A200008342178001FFEF779FEF2486178401F74
:108A3000FEF774FEEF48A178801FFEF76FFEED4849
:108A4000E178C01FFEF76AFEEA48241F2178083843
:108A5000FEF764FEE74861780938FEF75FFEE548F7
:108A6000A1780A38FEF75AFEE248E1780B38FEF7A3
:108A700055FE10BD10B5E04C80212046FEF74EFE9D
:108A80002046FEF749FEFFF7B5FFD94CD9483934E7
:108A900021781038FEF742FED64861781138FEF78B
:108AA0003DFED448A1781238FEF738FED148E1786F
:108AB0001338FEF733FECF4821790C38FEF72EFE2F
:108AC000CC4861790D38FEF729FE10BD10B5CA4CAF
:108AD00080212046FEF722FE2046FEF71DFEC44CF4
:108AE000C448393421781038FEF718FEC14861783F
:108AF0001138FEF713FEBF48A1781238FEF70EFEBC
:108B0000BC48E1781338FEF709FEBA4821790C38E1
:108B1000FEF704FEB74861790D38FEF7FFFD10BD82
:108B2000B34B10B5DB1FB54C5C62B54C9C62B54CC9
:108B3000DC62002800D05862002900D09962002A27
:108B400000D0DA6210BD30B5A94B0120DB1FD96B14
:108B500008704870062088700020C8709A6B120E4A
:108B60000A719A6B120C4A711A8F120A8A711A8F43
:108B7000CA71D96B802208818A72C872D96B1A4671
:108B8000087348738873C873087448748874C87409
:108B9000087548758875C875087648768876C876E9
:108BA000403214780C7754784C7794788C77D4785A
:108BB000CC770C46157920342570527962700622E4
:108BC0008C18521CD2B22077102AF9D3DA6B00210C
:108BD00054182034491CC9B220734029F8D3DA6BE9
:108BE000002154186034491CC9B220738029F8D37D
:108BF000D86B6321E0300173822242735322827367
:108C0000C17330BDFEB5FFF79EFF794900202931C1
:108C1000087048708870C870091D087048708870A6
:108C2000C8703439CB6B3522F021CA540127F121A9
:108C3000CF54F221CF543D22F321CA540722F4210C
:108C4000CA54F5216A4ACF5439321478F621CC54EB
:108C500011464C78F721CC541446A578F824E554F5
:108C60001446E578F924E55414462579FA24E554A8
:108C700014466579FB24E5540C21FC24E154FD21C4
:108C8000C8541221941D06E05E18E036491C401CB1
:108C9000357389B280B2255C002DF5D1544CD5785E
:108CA000E41FE36B5E18E0363573491C89B25E1829
:108CB0001579E0363573491C89B25D185279E03573
:108CC0002A73491C89B2C21C081AC018E03002720B
:108CD000E06B37224318E0331A73491C89B24318FA
:108CE0000622E033491C1A7389B24318E033491C49
:108CF0001F7389B243180325E033491C1D7389B2E1
:108D00004318E0331A73491C89B243180F22E03329
:108D10001A73491C89B242183A23E0321373491C72
:108D200089B242183B23E0321373491C89B2FF22F7
:108D30004318E0331A73491C0025FF2389B23933E5
:108D400004E04618E036491C357389B29942F8D3DD
:108D50006846027142718271C2714320009089227B
:108D600001AB9200A078E16BFFF7D3FAFEBDFEB530
:108D7000FFF7E9FE1E4C0020E41FE11D20560B46C4
:108D80002933FF27032849D0042847D068460771B4
:108D900047718771C771E26B3520F025A854012017
:108DA000F125A8540320F225A8543D20F325A8540A
:108DB0000720F425A8540120F525A8540C48F625D1
:108DC00039300078A8540A48F72539304078A8543B
:108DD0000748F82539308078A8540548F9253930F6
:108DE000C078A854024839300079FA25A8540BE01D
:108DF0004F0000201360004600230046F589000064
:108E0000758A0000CD8A0000FC48FB254079A854F3
:108E10006D46ED791020FF2D16D039E0E06B002271
:108E20008272C2720A7802734A7842738A788273B5
:108E3000CA78C2731A78684602715A7842719A7871
:108E40008271DA78C271A6E73225FC2085540425A8
:108E5000FD2085540E78FE2086544E78FF208654DF
:108E60008878AE01B054C978701C81543621401CFA
:108E70008154401C85541978401C81545978401CF9
:108E800081549978401C8154D978401C81541C200D
:108E900013180C21E0331973401C1318D74D00210F
:108EA000E033AD1D1973401C05E01618E036401C78
:108EB000337380B2491C6B5C002BF6D1E36BCF4A55
:108EC0001E18D578E0363573401C80B21E1815790F
:108ED000E0363573401C80B21D185279E0352A7394
:108EE000401C82B2C81C511AC918E0310872E06BEC
:108EF00037218318E0331973521C91B243180822AA
:108F0000E0331A73491C89B243180122E0331A7303
:108F1000491C89B243180322E0331A73491C89B2F1
:108F200043180622E0331A73491C89B243180F22F2
:108F3000E0331A73491C89B242183A23E0321373A2
:108F4000491C89B24218E0323B23491C137389B291
:108F50001F234218E0321373491C89B2421821239F
:108F6000E0321373491C89B24218E0321773491C6E
:108F70000022FF2389B2393303E04518E0352A7314
:108F8000491C9942F9DB43200090892201AB9200F1
:108F9000A078E16BFFF7BDF9FEBD1CB5FFF7D3FD6F
:108FA000964800214038C06B35228172C172F02191
:108FB0000A540122F1210A540422F2210A543D23C9
:108FC000F3210B540722F4210A540122F5210A54FB
:108FD0008A49F6220B7813544B78F72213548B7876
:108FE000F8221354CB78F92213540B79FA22135434
:108FF0004A79FB210A543222FC210A540422FD2121
:109000000A547E4939390A78FE210A547B49393994
:109010004A78FF210A54794939398A78FF21013188
:109020000A5476493939CA78FF2102310A54362266
:10903000491C0A540422491C0A547049FF22103961
:109040000B78053213544B78521C13548B78521CF6
:109050001354CA78FF2108310A54FF22491C0A54CC
:109060001D210023FF2239324418E034491C2373A8
:109070009142F9DBFF206946087148718871C87117
:10908000432000905D4889224038C16B01AB9200BB
:109090008078FFF73EF91CBDF0B5584C584A403C6B
:1090A000A07885B081048918496A0A04120C5BD043
:1090B00003A9009101ABE16BFFF7D9F983B26846D0
:1090C0008089432870D1E06B4C49027F0D78AA4219
:1090D0004AD1427F4D78AA4246D1827F8D78AA42FA
:1090E00042D1C57FCA7895423ED10246203215460C
:1090F00016780A79964237D16A7849798A4233D10B
:10910000214630310D780A1D002D08D14E78002EF1
:1091100005D18E78002E02D1CE78002E27D06E4653
:109120003679AE420ED16D466D794F78BD4209D188
:109130006D46AD798F78BD4204D16D46ED79CF781B
:10914000BD4214D01578AE420ED16D466D79567879
:10915000B54209D16D46AD799678B54204D16D46D8
:10916000EE79D578AE4202D0002005B0F0BDF030E7
:109170000025C318F03B15E00678332E42D008DCFA
:10918000002E15D0012E18D0032E21D0062E06D188
:1091900024E0352E0ED0362E43D0FF2E06D0467852
:1091A000801C80199842E7D368B2DEE71846F9E7D9
:1091B000401CF7E78578C01CF4E7104E8778313EF5
:1091C0003770C77877700779B7704779F7703CE0E8
:1091D00046788778B446094E353E04E0467887786D
:1091E000B446064E2D3E3770C77877700779B77052
:1091F0004779801D6044F770001FD3E78800002086
:10920000000201468678A661C7783602BF19A761B9
:1092100006793F02F719A76146793F02F619A66160
:1092200013E086780E70C6784E7006798E70467997
:10923000CE706E46367916706E46767956706E46EA
:10924000B67996706E46F679D670801DAAE7E84822
:109250000021C161052202624170704770B5E44C83
:1092600001256157002622469057022917DAE26944
:10927000216A914223D2012804D0022805D0042873
:1092800005D102E0FFF7BEFC01E0FFF770FDE661EB
:10929000E069401D20626078401C60700FE001288A
:1092A00004D0022805D0042807D102E0267000254A
:1092B00003E0FFF7A7FC01202070FFF7C8FF284656
:1092C00070BDF8B5CB4E3046FEF726FA05460321B1
:1092D0003046FEF723FAC64BC748DB1DDC1F009063
:1092E0001122C6A1A078FFF714F807462946304698
:1092F000FEF714FA0D3708D0FFF74FFEE069E16979
:10930000091A0229FBD30020F8BD0120F8BDF8B5E9
:10931000B74C207806281ED0A078BD49800440189C
:10932000FEF7FAF9222805D0002344220221A07872
:10933000FEF790FD0125FFF7AFFEC1B20022A25655
:10934000AB4800260127C01D130006F0C0FE05062D
:109350000D1C314C2F000520F8BD0670467086703C
:10936000C670FFF74FFC5EE002291CD1E16B0A7C5E
:1093700002704A7C42708A7C8270C97CC170FFF79F
:10938000F6FC02204BE005290BD1FFF79AFF0028DD
:1093900001D0606A3FE0FFF75AFFE06A804726701D
:1093A00004E006293DD0FFF759FF05462846F8BDE1
:1093B000A16904254A1CF9D0E26949089142F5D215
:1093C0008B490278C91C0A7042784A7082788A7088
:1093D000C078C870A06B401CA063FFF7C8FCFFF703
:1093E00036FF04201BE004250529DAD18049667088
:1093F000C91C0A7803789A420BD14A7843789A427A
:1094000007D18A7883789A4203D1C978C07881429B
:1094100002D0A06A03258047FFF719FF03202070C0
:10942000C4E7FFF714FF2770C0E710B5704CA078B1
:10943000FEF7E0FC0620207010BDF3B56D4F83B041
:1094400006460025413F38460095FEF765F9684C11
:1094500040342070781EFEF75FF96070B81EFEF78A
:109460005BF9A070F81EFEF757F9E070381DFEF7A3
:1094700053F92071F81CFEF74FF96071014620780E
:109480006278E3781043A2781A431043227910439C
:1094900008431FD1257008206070DC20A070E570A3
:1094A0002571294665713846FEF738F96178781ECE
:1094B000FEF734F9A178B81EFEF730F9E178F81E0E
:1094C000FEF72CF92179381DFEF728F96179F81C8F
:1094D000FEF724F9464F4F49BE700498F863E078D0
:1094E0006379421821798A1848409A1858408018A0
:1094F000B863684601783F480C463138FEF70EF9EC
:1095000068464078029001463A483238FEF706F93C
:10951000684680780190014636483338FEF7FEF8F9
:109520006846C678334831463438FEF7F7F8314894
:1095300021463138FEF7F2F82E4802993238FEF70C
:10954000EDF82C4801993338FEF7E8F82948314600
:109550003438FEF7E3F8274821463938FEF7DEF8BD
:10956000244802993A38FEF7D9F8224801993B3845
:10957000FEF7D4F81F4831463C38FEF7CFF8FFF726
:1095800066FE3D70F1E51A48C169491CC16170472A
:109590001749C91D0A7802704A7842708A78827029
:1095A000C978C170704712490B310A7802704A7845
:1095B00042708A788270C978C17070470C490F3147
:1095C0000A7802704A7842708A788270C978C170CD
:1095D0007047074913310A7802704A7842708A78D6
:1095E0008270C978C1707047014880697047000077
:1095F000480000204460004688130000434845436B
:109600004B5F49505F434F4E464C49435400000066
:10961000300001467856341201784078090240182B
:1096200080B270470A0A02704170801C7047F0B522
:1096300084460020054606460C78491C002D00D1C2
:10964000401C2706BF0F032F0AD1002D00D1401C5C
:10965000A4060978A40C6444091901250C78491C56
:10966000002C19D01B1B5B1E1BB2002B02DA002042
:10967000C043F0BD002D05D1001903E00F7817702D
:10968000491C521C2746641EA4B2002FF6D12E247A
:109690001470521C761CCFE7002E02D12E211170BF
:1096A000521C00211170F0BD10B593B00C464B2335
:1096B0006A46FFF7BCFF411C03D02018001D13B001
:1096C00010BD0020FBE770B593B015460C4606466A
:1096D0004B236A46FFF7ABFF411C46D024182046B7
:1096E000FFF79AFF0A34030006F0F1FC103C09135F
:1096F0003C3C13291313133C3C13183C1F3C2078AB
:10970000287060786870A078A870E078E870241DF0
:1097100028E04B236A460BE0241823E02078641CE1
:1097200020180178401C44181CE04B236A46A41CF6
:1097300021463046FFF77BFF411C16D0ECE74B2358
:109740006A4621463046FFF772FF411C0DD02418AF
:109750004B236A4621463046FFF769FF411C04D07F
:1097600024181434204613B070BD0020FBE7F7B571
:109770000D460446122105F05CFE2846FFF74CFF1B
:109780002080A81CFFF748FF02040121002A00DA0C
:10979000A1704204120FE270420500D521718205CA
:1097A00000D56171C20500D5A171020600D5E17135
:1097B0000007000F2072281DFFF72EFF6081A81DF3
:1097C000FFF72AFFA08128460830FFF725FFE08138
:1097D00028460A30FFF720FF29460C310026208258
:1097E000771E06E02846FFF75FFF010014D0761CC5
:1097F000B6B26089B042F5D8002607E02846029A42
:10980000FFF761FF010007D0761CB6B2A089B04215
:10981000F4D80020E18903E03846FEBD401C80B248
:109820008142FBD80020218A01E0401C80B28142A5
:10983000FBD8207A002801D00020FEBD0120FEBD0B
:10984000FFB55E4A0D46518895B00346491C89B262
:1098500017985180FFF7E6FED902FF31013189B236
:10986000FFF7E0FE0121FFF7DDFE0021FFF7DAFE42
:109870000021FFF7D7FE0021FFF7D4FE044629465A
:10988000684605F0D5FC6E46304605F0F7FC80B220
:1098900013902E21304605F093FC070002D0B81B30
:1098A00085B200E0139D2570641C002D12D02A465D
:1098B0003146204605F0C2FD6419002F07D01398E9
:1098C0007619401B401E80B2761C1390E1E7002001
:1098D0002070641C01212046FFF7A4FE0121FFF740
:1098E000A1FE179919B0401A00B2F0BD3348816843
:1098F00003290BD3002282600178022902D302706F
:10990000501E7047491C01700020704701207047AD
:109910002A4A50702A48516050807047F7B5274C4A
:109920000D46002388B01A4602216078FEF792FAAD
:10993000FF2601363346294600206268FFF780FF84
:109940003525009582B2089B60786168FEF7E1FCDE
:109950001C4F60788004C019406A05042D0C16D095
:10996000B54200D9354607A8009006AB2A46607874
:109970006168FEF77CFD0A9A01A86168FFF7F7FEAF
:1099800005466078FEF736FA28460BB0F0BDFFF7C3
:10999000ADFF002801DA0020F7E70028D9D13520F3
:1099A00000902A46089B60786168FEF7B2FCD0E719
:1099B00002488168491C81607047000098000020BF
:1099C000221100000002014610B5BF4909780129A3
:1099D0000AD1BE4C2178012906D101F05AFB0020A2
:1099E00002F0EEF80020207010BD3EB502F080FAC3
:1099F0006421095C002906D0B5490978012906D0FF
:109A0000B4A005F003FAB7A005F000FA3EBD014688
:109A100021314A7C097C12020A43014620318B7BAA
:109A20004C7B0094019302920B7BCA7A4931AEA021
:109A300005F0ECF9E7E7FEB502F05AFA0446002516
:109A4000B2490420FFF764FF20466030427969463E
:109A50000A7082794A70C27906468A70007AC870A4
:109A6000032000F03BFF20462B3069340190214653
:109A70006846019AFFF752FF074601280BD06D1C7C
:109A8000EDB2022D07D803F0E8FDF0780028EED003
:109A9000FFF73DFCEBE7012000F020FF3846FEBD5C
:109AA00010B502F025FA6030C078002806D098483A
:109AB0000078012803D097A005F0A8F910BDFFF7A2
:109AC00093FD014698A005F0A1F910BD70B50025E1
:109AD00002F00EFA064629368C490320FFF7ADFC4A
:109AE0009C499B4A0846FFF71BF8032000F0F6FE4E
:109AF000FFF70DFC044604280BD0002C01D16D1C8F
:109B0000EDB2032D05D803F0A8FD0020FFF75CFFA0
:109B1000EEE77078042802D0012000F0DFFE60B28A
:109B200070BDF0B591B002F0E3F904463C228A49D9
:109B30006846FDF73FFB611D88A005F067F92646E2
:109B40002036707A8B49800009588BA005F05EF9A9
:109B50008FA005F05BF9204660300F90C078012897
:109B60002AD091A192A005F051F99AA005F04EF9E2
:109B700027462337787B3A7B010211439AA005F0F0
:109B800045F9A049A0A005F041F99E49A7A0491CAC
:109B900005F03CF9AE48FDF7BFFD0146ADA005F06C
:109BA00035F9B5A005F032F925464035287E002864
:109BB00004D02246583202E0B5A1D3E7B9A200286A
:109BC00001D0BAA100E0BBA1BDA005F01FF9C0A063
:109BD00005F01CF90F988078012811D0B5A1C5A215
:109BE000CCA005F013F9CEA005F010F9D5A005F032
:109BF0000DF9787C3A7C0102114303D0D7A003E031
:109C0000AAA1ECE7ABA159A005F000F9D7A005F097
:109C1000FDF820462130417D007D0902014301D03D
:109C2000D8A001E0A3A151A005F0F0F8D9A005F05B
:109C3000EDF80023DDA2DDA1DEA005F0E7F86879EC
:109C4000E34980000958E3A005F0E0F8A8796946E7
:109C500080000958E5A005F0D9F8E879E649095CE3
:109C6000E6A005F0D3F8287AE54980000958E5A078
:109C700005F0CCF8687AE449095CE4A005F0C6F880
:109C80006979E44800291CD00168E3A005F0BEF81A
:109C90000223C6A2C5A1E5A005F0B8F8EAA3ECA28C
:109CA000EDA1F1A005F0B2F8F4A005F0AFF8FCA02A
:109CB00005F0ACF8787D3A7D0102114302D0B1A0E5
:109CC000FAE1F3E1F6E10000C4000020C600002044
:109CD000D2000020202320444E53204661696C6549
:109CE000640D0A000D0A0000202320444E533A2040
:109CF0002573203D3E2025642E25642E25642E25C7
:109D000064203A2025640D0A000000004003002072
:109D10001C01002020232044484350204661696CE8
:109D200065640D0A000000002023204448435020B1
:109D30004950204C65617365642074696D65203AF3
:109D4000202575207365636F6E64730D0A00000033
:109D5000897C0000017C000098020100202D204435
:109D60006576696365206E616D653A2025730D0A1D
:109D7000000000000C010020202D2044657669635E
:109D800065206D6F64653A2025730D0A00000000A0
:109D9000202D204E6574776F726B20736574746923
:109DA0006E67733A200D0A00537461746963000092
:109DB000092D204F627461696E696E6720495020D9
:109DC00073657474696E67733A205B25735D0D0A61
:109DD00000000000092D205443502F55445020709E
:109DE0006F7274730D0A0000092020202B2053325B
:109DF00045206461746120706F72743A205B256441
:109E00005D0D0A0051C30000092020202B2054437F
:109E1000502F5544502073657474696E6720706FBD
:109E200072743A205B25645D0D0A00000920202031
:109E30002B204669726D776172652075706461745C
:109E40006520706F72743A205B25645D0D0A000016
:109E500044600046092D20544350205265747261BD
:109E60006E736D697373696F6E2072657472793A7F
:109E7000205B25645D0D0A00202D2053656172630F
:109E80006820494420636F64653A200D0A00000091
:109E90004175746F6D61746963202D20444843508F
:109EA000000000004E6F6E6500000000456E6162AC
:109EB0006C65640044697361626C65640000000055
:109EC000092D2025733A205B25735D0D0A000000E3
:109ED000202D2045746865726E657420636F6E6E08
:109EE000656374696F6E2070617373776F72643A23
:109EF000200D0A0028544350207365727665722045
:109F00002F206D69786564206D6F6465206F6E6CBD
:109F100079290000092D2025732025730D0A0000E2
:109F2000202D20436F6E6E656374696F6E207469B7
:109F30006D65722073657474696E67733A200D0ADB
:109F400000000000092D20496E6163746976697410
:109F5000792074696D65723A200000005B25645DAC
:109F60002028736563290D0A00000000092D205286
:109F700065636F6E6E65637420696E746572766179
:109F80006C3A20005B25645D20286D736563290DA4
:109F90000A000000202D2053657269616C207365F2
:109FA0007474696E67733A200D0A0000554152546B
:109FB00000000000092D2044617461202573207089
:109FC0006F72743A20205B257325645D0D0A0000D2
:109FD000DC020020092020202B205541525420492A
:109FE000463A205B25735D0D0A0000000920202001
:109FF0002B2025642D000000B802002025642D00D0
:10A00000BC02002025732D00C80200202564202FEB
:10A0100020000000CC020020466C6F7720636F6E3A
:10A0200074726F6C3A2025730D0A0000092D2044CC
:10A030006562756720257320706F72743A205B2506
:10A040007325645D0D0A000028666978656429003F
:10A050004E4F4E45000000003131353230302D3842
:10A060002D4E2D3100000000092020202B202573CB
:10A07000202F2025732025730D0A0000202D20534A
:10A08000657269616C2064617461207061636B69E1
:10A090006E67206F7074696F6E733A0D0A0000006E
:10A0A000092D2054696D653A20000000A97A8900C5
:10A0B0004158EAE5AE49AF4804F0A8FEAEA004F06E
:10A0C000A5FE717E002901D0AEA001E0A849A948F3
:10A0D00004F09CFEAFA004F099FEB07F01281CD0D4
:10A0E000A349A44804F092FEADA004F08FFE803492
:10A0F000E07E012814D09E49B3A004F087FEE37FE0
:10A10000A27F617FB2A004F081FEBAA004F07EFEBF
:10A11000E87A002807D0C1A206E0B17EC0A0E1E73E
:10A1200093490839E8E7C3A2C5A1C7A004F06EFEB1
:10A13000287B002801D0CBA200E0CBA2CEA1D0A0EA
:10A1400004F064FED5A004F061FEDF4C207804F03A
:10A1500018FDDE4D80002F58207804F003FDDC4E02
:10A16000800032583B46DBA1DCA004F04FFE607853
:10A1700004F007FD80002F58607804F0F3FC8000A5
:10A1800032583B46DDA1DFA004F040FEA07804F089
:10A19000F8FC80002F58A07804F0E4FC80003258CE
:10A1A0003B46E0A1E1A004F031FEE07804F0E9FCD8
:10A1B00080002D58E07804F0D5FC800032582B4602
:10A1C000E2A1E4A004F022FEEAA1A4A004F01EFE95
:10A1D00011B0F0BD38B501F08BFE04466CA004F060
:10A1E00015FEE4A19DA004F011FEEFA1F1A004F082
:10A1F0000DFEF2A004F00AFEFAA00090A37D627D9D
:10A20000217DFAA004F002FEDAA194A004F0FEFD84
:10A2100038BD01B5FE480099016001680029FCD1F4
:10A2200008BD8AB001F064FE044600F02EFAF9A0E1
:10A2300003C806900791F7A003C809910890FDF79D
:10A24000CDFAFCF7EFFFF54905F08BF9F44908600A
:10A2500008A906A8FDF768FB00F0B0FA01F001FFBD
:10A2600020462030012507908572C01C417D027D6B
:10A270000802104301D0EB49088001F0DAFF01F039
:10A2800037FE8030817E684601767D210901418359
:10A2900006A8FDF790FB03F0BEFE26464036707B15
:10A2A000002803D0FFF796FFFFF73BFC01F0E1FF2A
:10A2B00027466037F87800282BD0FFF707FC0428E2
:10A2C00025D0214606221731684601F02CFF214691
:10A2D00001A804221D31023001F029FF214603A804
:10A2E00004222131023001F022FF214602A804227B
:10A2F0002531023001F01BFF04A80422791D023031
:10A3000001F015FF69460020FDF74DFC03E0C6484B
:10A310000570C6480570707B002803D001F00BFF64
:10A32000FFF7BEFB0798407A01280DD03879002846
:10A330000AD0FFF780FB002801D0BD480570707B74
:10A34000002801D0FFF751FBBA4800240570BA4D30
:10A350002878002803D0002001F032FC2C7004F093
:10A3600080FBB64D03F079F90020FFF72DFB67E184
:10A37000B49E00006C9D0000092D2053697A653A57
:10A38000200000005B25645D2028627974657329D4
:10A390000D0A0000092D20436861723A2000000078
:10A3A000202D2053657269616C20636F6D6D616E45
:10A3B00064206D6F64652073776974636820636FD0
:10A3C00064653A0D0A000000092D2025730D0A006E
:10A3D000092D205B252E32585D5B252E32585D5BA2
:10A3E000252E32585D2028486578206F6E6C7929BB
:10A3F0000D0A0000202D204861726477617265208B
:10A40000696E666F726D6174696F6E3A2053746124
:10A410007475732070696E730D0A00004454520005
:10A420005B252E32585D2028686578206F6E6C7928
:10A43000290D0A00504859206C696E6B000000001D
:10A4400050415F3130000000092D20537461747554
:10A450007320313A205B25735D202D2025730D0A72
:10A46000000000004453520054435020636F6E6E4E
:10A47000656374696F6E000050415F303100000009
:10A48000092D2053746174757320323A205B257353
:10A490005D202D2025730D0A00000000202D20488E
:10A4A0006172647761726520696E666F726D617446
:10A4B000696F6E3A205573657220492F4F2070697D
:10A4C0006E730D0A00000000180300202403002012
:10A4D0001C03002050435F3133000000092D20553C
:10A4E000736572494F20413A205B25735D202D2012
:10A4F0002573202F2025730D0A00000050435F3183
:10A5000032000000092D2055736572494F20423AF0
:10A51000205B25735D202D202573202F2025730DB2
:10A520000A00000050435F3039000000092D20551B
:10A53000736572494F20433A205B25735D202D20BF
:10A540002573202F2025730D0A00000050435F3033
:10A5500038000000092D2055736572494F20443A98
:10A56000205B25735D202D202573202F2025730D62
:10A570000A0000003D3D3D3D3D3D3D3D3D3D3D3DF5
:10A580003D3D3D3D3D3D3D3D3D3D3D3D3D3D3D3DFB
:10A590003D3D3D3D3D3D3D3D3D3D3D3D3D3D3D3DEB
:10A5A0003D3D3D3D3D3D000057495A373530535202
:10A5B00000000000202573200D0A0000203E3E20F0
:10A5C00057495A6E65742053657269616C20746FC7
:10A5D0002045746865726E657420446576696365AC
:10A5E0000D0A0000537461626C650000203E3E203D
:10A5F0004669726D776172652076657273696F6EF8
:10A600003A2025642E25642E25642025730D0A002A
:10A61000A80000200402020202020200102700002B
:10A6200000200046E00000201C0100201D01002049
:10A63000D2000020C3000020AC000020A8020020AF
:10A6400025480078002802D0002001F042FAF8786E
:10A65000002801D0FEF75BFE20480178002900D0D9
:10A6600004702878002800D17CE6707B002802D096
:10A670001BA004F0CBFB2C7074E621480168002974
:10A6800002D00168491E0160704710B500F0D9F88A
:10A690001C4A01209110FCF729FE03F0DDFA03F0BB
:10A6A000F3FCFCF7BFFD7D21C90004F05AFF1649F9
:10A6B000401E88420CD81549486115480722C369D5
:10A6C0001B021B0A4C042343C361002088610A61FA
:10A6D0000A20FFF79EFD10BD1D010020C2000020D2
:10A6E000203E20554152542052782052696E6720F6
:10A6F0006275666665722046756C6C0D0A00000016
:10A70000A8000020006CDC02FFFFFF0000E000E07A
:10A7100004ED00E0FEB50446032818D26A4E650039
:10A72000705B00900120694608716848A700C05915
:10A73000FCF75AFE6548715B001F025DC01E005D9C
:10A74000FCF7E6FE6148715BC059FCF7C3FEFEBD35
:10A7500070B5012311249D03A4060022294620463A
:10A76000FCF7FEFE656170BD10B5012321200022BB
:10A7700059024006FCF7F4FE10BD70B500242125F7
:10A780006D0602212846FCF797FE002801D0012023
:10A7900070BD0520FFF73DFD641CE4B2052CF0D32D
:10A7A000002070BD10B5212464060123002202217F
:10A7B0002046FCF7D5FE0220606110BD70B5012077
:10A7C00003F0D6FA424961200863424B01225A61E4
:10A7D00048619A6188613F48803082613C4902202B
:10A7E00080318861402045210906486008614402A3
:10A7F000432501022D0622462846FEF7C8F82246C8
:10A8000000212846FEF767F8002003F0B1FAFFF7B1
:10A81000C9FFFFF7B2FF002811D000202B490839EB
:10A820000870FFF7A1FFFFF793FF0020FFF772FF0B
:10A830000120FFF76FFF0220FFF76CFF70BD0120C2
:10A84000ECE72549022008632249403988607047B7
:10A8500010B50121212049024006FCF72DFE10BD54
:10A8600010B511200123002240218006FCF778FE5C
:10A8700010BD10B5112040218006FCF71DFE10BD53
:10A8800010B5032807D2104A4100515A0F4A8000E0
:10A890001058FCF72DFE10BD10B5032807D20A4A48
:10A8A0004100515A094A80001058FCF713FE10BDB0
:10A8B000032808D20549820089584A68024B4000A3
:10A8C000185A42404A607047D4020100B400002088
:10A8D00040300041402000414011004170B5054624
:10A8E00001F006FB0446293401F002FB2B0005F0C1
:10A8F000EEFB06100406090C0E10012003E00220F6
:10A9000060700EE00320607006E00420FBE7052085
:10A91000F9E76078022804D00021022004F0D1F980
:10A9200070BD0121F9E700290FD00023FE4A00285D
:10A930000CD0012813D002281AD0032805D1106B9F
:10A94000401C1ED0D06B4018D0637047106B401C69
:10A9500003D0106B40181063704713637047106B7F
:10A96000401C03D0506B40185063704753637047CE
:10A97000106B401C03D0906B40189063704793633A
:10A980007047D3637047F7B582B015460E46002472
:10A9900003F0E2F9002811D003F0E7F9009003F08A
:10A9A000E1F9019003F0DBF9074603F0D5F9014620
:10A9B0003A46DEA0019B04F029FA0DE003F0D5F938
:10A9C000009003F0CFF9074603F0C9F901463A4673
:10A9D000DCA0009B04F01AFA022D02D0032D02D055
:10A9E00013E0DDA100E0DDA13246DDA004F00EFAA7
:10A9F00006E00298015DDDA004F008FA641CA4B230
:10AA0000B442F6D3DBA004F001FA204605B0F0BD55
:10AA1000FEB50C46074601F06BFA002506464E3699
:10AA20000095019502950B2C00D30A242246394645
:10AA3000684604F0A1FC304604F020FCA04207D197
:10AA400022466946304604F0C5FB002800D10125A6
:10AA50002846FEBDF1B584B001F04AFA29300390D2
:10AA600001F046FA0546453501F042FA4E300290B3
:10AA70006879022804D1002003F027FC0028C5D102
:10AA800004988104BC480818406A002687B2012057
:10AA9000C002A54C874201D9074601E0002F3CD0F7
:10AAA000B6480818FCF738FE172829D01C2827D0EC
:10AAB00022282BD19C483A46283003460090183370
:10AAC000AF490498FDF7D3FC9749E0844031042254
:10AAD000081D04F07FFB002818D09349086C4864D7
:10AAE000287A002812D008464030228DC178019281
:10AAF0000091837842780178A2A004F087F905E0FC
:10AB00003A469F490498FDF79DFBE084E682268340
:10AB10002673E18C0220FFF706FF03984078012896
:10AB200004D0022809D16078002806D10298007D5F
:10AB3000012802D1A07A002806D0E08C002811D08C
:10AB4000E879012812D015E039468D48FFF760FFFB
:10AB5000012808D0A672E684A07A002802D10498C1
:10AB6000FDF79EFA52E70120A072F4E704F004F921
:10AB70000028F7D02878824F012808D0687901286A
:10AB800022D0287A03283DD004283BD03FE0287A01
:10AB9000032801D0042804D10322E18C7848FFF770
:10ABA000F2FE002003F041FB002505E0795D002066
:10ABB00003F0D6FA6D1CADB2E08C8542F6D30020CE
:10ABC00003F05BFBE18C18E0607B0128CAD1287A96
:10ABD000032801D0042804D10322E18C6848FFF740
:10ABE000D2FE002505E0795D002003F0B9FA6D1C66
:10ABF000ADB2E08C8542F6D314E00320FFF793FE5C
:10AC0000E68403E70322E18C5D48FFF7BCFE0025E4
:10AC100005E0795D002003F0A3FA6D1CADB2E08C75
:10AC20008542F6D381B2E8E7F8B501F061F905464F
:10AC30005E48293501885E4800880A185D4800880A
:10AC4000101A04F098FC384C8EB2A08C01273018F2
:10AC5000FF02B84213D3687C00280DD0012E0BD11F
:10AC6000002003F0C4FAC1B25348A28C8154687C1E
:10AC7000884201D11046F8BDA08C381A86B2E87B14
:10AC8000A97B0002084305D1287C002802D1687CFA
:10AC9000002801D000272AE00025474F08E00020C7
:10ACA00003F0A5FAA18C7854491C6D1CA184ADB2A7
:10ACB000B542F4D3A08CF8BD002003F098FA024608
:10ACC0003D49A08C0A54401C80B2A0846A7C002AB2
:10ACD00004D009182039C97F8A4204D0297C002970
:10ACE00003D0814201D180B2F8BD7F1CBFB2B74210
:10ACF000E2D3E87BA97B000208435FD0A58C002D3E
:10AD00005CD0207A002859D028480188284800883B
:10AD10000A1828480088101A04F02DFC002901D1D7
:10AD2000002020722846F8BDC4000020205B256466
:10AD3000642F253032643A253032643A253032644B
:10AD40005D000000205B253032643A253032643AE1
:10AD5000253032645D000000533245004532530017
:10AD60005B25735D5B253034645D200025303258EF
:10AD7000200000000D0A00000002014630000146DC
:10AD8000400B0020203E2055445020506565722025
:10AD900049502F506F72743A2025642E25642E2559
:10ADA000642E2564203A2025640D0A00B20200209A
:10ADB000AE020020B0020020400300200020F8BDB9
:10ADC000FEB5074601F094F80546293501F090F8E4
:10ADD00006464536FFF73CFD002876D1FFF724FFF5
:10ADE000F24C019000286ED001460020FFF79BFD39
:10ADF000307A022801D0042804D10222EC480199BB
:10AE0000FFF7C1FDEB49B8044018FCF785FC142896
:10AE10005FD017283BD01C2839D0222853D1A878DE
:10AE2000002808D1E878002805D12879002802D127
:10AE30006879002806D0687A297A00020843AB1C9A
:10AE4000009011E0D94840300178002908D14178BC
:10AE5000002905D18178002902D1C07800280AD0C4
:10AE6000D24B208D40330090D1493846019AFDF7EE
:10AE700050FA07B205E0307A002802D0CE4803F03D
:10AE8000C5FF002F1FDDA08CC01BA0841BE0A07A93
:10AE9000012818D1C6493846019AFDF743F900B296
:10AEA000002802DDA18C081AA08401200199FFF777
:10AEB0003AFDE87D012806D1207B002806D000203D
:10AEC0002073002020830020E082FEBD012020713D
:10AED000F7E70020A084FEBDF0B589B0074601F079
:10AEE00007F801F005F80546293501F001F8064696
:10AEF000B048BC0445362018FCF70EFC0023AF4ACE
:10AF000000281DD0222819D1AD48018810880A18C0
:10AF1000AC480088101A04F02EFBA44DA88C014305
:10AF200002D03846FFF74CFFA7482018406AE98C4A
:10AF300080B2084302D03846FFF78CFD09B0F0BD5F
:10AF40000020A0491080088098498884C884A97886
:10AF50000A46E03A0F2A54D801236A461374507403
:10AF60005E209074E8784006400ED07402902879F4
:10AF7000107501906879507500909348D938201861
:10AF8000FCF7CCFB9048E978DA382018FCF7C6FBD0
:10AF90008D482979DB382018FCF7C0FB8A4869798D
:10AFA000DC382018FCF7BAFB687A297A00020843DB
:10AFB0008049D0316118086283480121E5382018A2
:10AFC000FCF7ACFB80480021E6382018FCF7A6FB14
:10AFD0007D485E21E7382018FCF7A0FB75480299F0
:10AFE000E8302018FCF79AFB77480199E3382018DD
:10AFF000FCF794FB74480099E4382018FCF78EFBAA
:10B00000802301200343E879A97902020A4302213F
:10B010003846FCF71FFFB84290D10520FFF75EFCD1
:10B02000E87BA97B0002084301D060498883307A1D
:10B03000002883D065A003F0E9FE7FE710B55B4CE4
:10B04000A08A002809D06849884204D2401C0840E0
:10B05000A08202D00DE00020A08202F090FE04F059
:10B0600089F8FCF78BF8614904F085FA6048081804
:10B07000A08280B210BD4D480021C170C171017124
:10B0800041720172C1728172C18201840183418463
:10B09000704770B5054600F02BFF04464549A804EB
:10B0A00029344018FCF738FB002807D02178032901
:10B0B00009D0172804D01C2802D004E0284670BD0F
:10B0C0002846FCF7EDFF2846FCF794FEF6E710B59E
:10B0D00000220621FDF7ACFA10BDF0B585B000F0F6
:10B0E00007FF0446293400F003FF0546453500F00C
:10B0F000FFFE014600204E310646009003913D4878
:10B10000FCF70AFB6946087002903A48401EFCF7BB
:10B1100003FB6946487001903648801EFCF7FCFA34
:10B120006946887007463348C01EFCF7F5FA694641
:10B13000C8700399897D012908D11C49897B01299F
:10B1400004D0287A002815D02BA011E002990029FC
:10B1500006D10199002903D1002F01D1002803D085
:10B16000A178002907D00FE0287A00287ED02CA0F3
:10B1700003F04CFE7AE0E278002A05D12279002A19
:10B1800002D16279002A6CD0029A8A426FD1E278A9
:10B19000019991426BD121798F4268D161798842BE
:10B1A00065D1287A002861D059E05AE0C400002017
:10B1B0004003002030000146D8030100AE02002009
:10B1C000B2020020B002002000020146203E2053BF
:10B1D00045473A5544505F4D4F44453A534F434BD2
:10B1E0004F50454E0D0A0000FFFF000010270000E1
:10B1F000B888000013600046203E205345473A437C
:10B200004F4E4E454354494F4E204641494C4544CC
:10B21000202D20444E53204661696C65640D0A0060
:10B22000203E205345473A434F4E4E454354494FE5
:10B230004E204641494C4544202D20496E76616C94
:10B24000696420495020616464726573733A205ABE
:10B2500065726F2049500D0A0000000007E0F3A05E
:10B2600086E7287A002801D0FD4881E7012630468C
:10B2700078E4F1B588B000F03BFE00F039FE0546F9
:10B28000293500F035FE0746453700F031FE4E30D7
:10B290000024069002946846848108988104F1484D
:10B2A00004910818FCF738FAEF4A04990126891826
:10B2B0000591172857D01FDC00287DD013282AD0ED
:10B2C000142818D1E94C6078002814D1E848018886
:10B2D000E84800880A18E8480088101A04F04BF97A
:10B2E000002908D00898FFF7D4FE6670687B297B98
:10B2F00000020843E08321E61828DED01C28FAD19A
:10B30000DA4C0598406AE18C80B20843089876D000
:10B31000FFF7A0FBF5E7D54E70780128EBD1687BED
:10B32000297B00020843F18B8842E4D8F483FFF7BD
:10B33000D4FE01280DD0697A287A0A020243A91C9A
:10B340000898FCF729FE707C401CC0B270740A2873
:10B35000D1D30898FFF79DFEC64874740480C64890
:10B3600004807470EAE5BF49049810394018FCF76E
:10B37000D3F9C0075ED00220FFF7B0FABB48C18AFC
:10B38000002905D1E97AAA7A0902114300D0C670D2
:10B39000B648008B002804D1E87D002801D0B348CE
:10B3A00006710698007D002809D0B048417801292F
:10B3B00005D0827A114300E0A5E003D004E0AB4859
:10B3C000867201E046724484387A00281BD002AAB3
:10B3D00004210898FDF792F903AA05210898FDF7C2
:10B3E0008DF9A2484078002868468189C07A00908B
:10B3F00001916846837A427A017A0BD000E07FE0BF
:10B400009EA003F003FD99484178002904D001294A
:10B4100007D007E0A4A0F4E796490C8096490C8079
:10B4200000E0447044748F490498083940180121A1
:10B43000FCF774F98E4801888E4800880A188E48F7
:10B440000088101A04F097F8884FB88C014302D096
:10B450000898FFF7B5FC0598406AF98C80B208435C
:10B4600002D00898FFF7F6FAF87801280CD1E87AAC
:10B47000A97A00020843F98A884205D80898FFF79C
:10B4800008FE3C713C837C70E87D012823D138792B
:10B49000012820D1387B002802D001280ED01AE0E4
:10B4A000687E297E00020843398B884213D8002821
:10B4B00011D00898FFF70BFE3C833E73E87EA97E0F
:10B4C00000020843398B884205D8002803D0089829
:10B4D000FFF7FDFD3C837878002800D02EE5069824
:10B4E000007D0128FAD1B87A0028F7D1788C794903
:10B4F0008842F3D30898FFF7CCFD7C727C841DE56D
:10B50000FCF7CEFD1AE50120FFF7E8F9574A50781D
:10B51000002817D020461446D084FFF78FFD02463E
:10B52000212301210898FCF795FC08998842D5D180
:10B53000E87BA97B0002084300D0A083A079002803
:10B5400020D025E0FFF797FD20469084D084E8794D
:10B550001446A97902020A43212301210898FCF725
:10B5600079FC08998842B9D1E87BA97B000208439D
:10B5700000D0A0830898FCF7D8FC387A0028ADD01A
:10B5800055A009E0687B297B0002084300D0A67122
:10B59000387A0028A2D05AA003F038FCCEE4F1B5E6
:10B5A00086B000F0A5FC00F0A3FC0646293600F0AA
:10B5B0009FFC4530009000F09BFC4E30002504902D
:10B5C0000295684685810698840426482018FCF771
:10B5D000A3F825496718172811D002DC002821D1CB
:10B5E00038E11828FCD01C281CD1204C786AE18C4A
:10B5F00080B20843069816D0FFF72CFAF6E71948F0
:10B6000010382018FCF788F8C0070DD00220FFF78B
:10B6100065F91648C18A002907D1F17AB27A090280
:10B62000114381E011E112E1ABE080E0203E2053C4
:10B6300045473A434F4E4E454354494F4E204641AD
:10B64000494C4544202D204475706C6963617465D4
:10B6500020495020616464726573730D0A00000014
:10B66000240401003000014600020146C40000200D
:10B67000B2020020AE020020B0020020203E205383
:10B6800045473A434F4E4E454354454420544F207E
:10B690002D2025642E25642E25642E2564203A2035
:10B6A00025640D0A00000000203E205345473A4320
:10B6B0004F4E4E45435445442046524F4D202D2079
:10B6C00025642E25642E25642E2564203A202564C9
:10B6D0000D0A000088130000203E205345473A54CD
:10B6E00043505F4D495845445F4D4F44453A53459B
:10B6F000525645525F534F434B4F50454E0D0A0033
:10B70000203E205345473A5443505F4D49584544E5
:10B710005F4D4F44453A434C49454E545F534F4368
:10B720004B4F50454E0D0A0001D00121C1700499C4
:10B73000097D002942D00121417245840098007A98
:10B74000002815D002AA04210698FCF7D7FF03AA07
:10B7500005210698FCF7D2FF68468189C07A0090DF
:10B7600001916846837A427A017AF84803F04EFBE9
:10B77000F74801210580F7480580F7482018FBF7B6
:10B78000CDFFF6480188F24800880A18F148008881
:10B79000101A03F0F0FEF24CA08C014302D0069880
:10B7A000FFF70EFB786AE18C80B2084302D006985E
:10B7B000FFF750F9E078012803D00EE001218172F3
:10B7C000BCE7F07AB17A00020843E18A884204D8E3
:10B7D0000698FFF75EFC25712583F07D012824D1B2
:10B7E0002079012821D1207B002802D001280FD008
:10B7F0001BE0707E317E00020843218B884214D802
:10B80000002812D00698FFF762FC258301202073E0
:10B81000F07EB17E00020843218B884205D80028C3
:10B8200003D00698FFF753FC25830498007D012878
:10B830000BD1A07A002808D1608CCA49884204D371
:10B840000698FFF726FC6572658407B0F0BDFCF72B
:10B8500027FCFAE70120FFF741F8FFF70CFCC04C8A
:10B860002123A584E584F079B17902020A430121FC
:10B870000698FCF7EFFA06998842E6D1F07BB17B97
:10B880000002084300D0A0830698FCF74EFB009806
:10B89000007A0028D9D0B4A003F0B8FAD5E7F1B502
:10B8A00084B000F025FB00F023FB0546293500F0AD
:10B8B0001FFB4530009000F01BFB002468460294FB
:10B8C000848104988604A44808303018FBF724FFCC
:10B8D000AE497718172828D019DC00287ED0132805
:10B8E00014D1687B2A7B01029D481143C28B91428F
:10B8F0000CD8C483FFF7F1FB012807D0687A297AB6
:10B9000002020A43A91C0498FCF746FBB0E418287D
:10B91000E4D01C28FAD1924C786AE18C80B20843BA
:10B9200004987CD0FFF796F8F6E78B480838301873
:10B93000FBF7F2FEC00744D00220FEF7CFFF884895
:10B94000C18A002906D1E97AAA7A0902114301D0F5
:10B950000121C170018B002904D1E97D002901D0AA
:10B96000012101717E48012181728079012802D173
:10B970007B488471C4830098007A002816D002AAFC
:10B9800004210498FCF7BAFE03AA05210498FCF7E9
:10B99000B5FE68468189C07A009001916846837A35
:10B9A000427A017A69482C3803F030FA684801215C
:10B9B0000480684804806A48C47367483018FBF7FD
:10B9C000ADFE66480188624800880A186148008810
:10B9D000101A03F0D0FD624EB08C00E049E0014344
:10B9E00002D00498FFF7ECF9786AF18C80B2084332
:10B9F00002D00498FFF72EF8F07801280BD1E87AEE
:10BA0000A97A00020843F18A884204D80498FFF713
:10BA100040FB34713483E87D012801D028E425E01F
:10BA200030790128FAD1307B00280FD00128F5D1D8
:10BA3000E87EA97E00020843318B8842EED80028B8
:10BA4000ECD00498FFF743FB348311E4687E297E31
:10BA500000020843318B8842E0D80028DED00498E9
:10BA6000FFF735FB348301203073E1E7FCF718FB67
:10BA70004CE70120FEF732FFFFF7FDFA384EB484A1
:10BA8000F484FFF7DBFA0246212301210498FCF736
:10BA9000E1F904998842EBD1E87BA97B00020843D5
:10BAA00000D0B083B079002806D1687B297B0002E2
:10BAB000084301D00120B0710098007A0028D7D047
:10BAC000F07B0028D4D132A003F0A0F90120F0735C
:10BAD0001CE770B5064600F00BFA0546293500F064
:10BAE00007FA0446453400F003FA1D49A8300A7CE1
:10BAF000002A01D000220A740078012825D0087895
:10BB0000012822D12878002806D0012808D0022850
:10BB10000AD003280FD10BE03046FFF7C0FE0AE041
:10BB20003046FFF73CFD06E03046FFF7A2FB02E09F
:10BB30003046FFF7D1F9002002F0D5FB60790128EB
:10BB400001D0022801D102F0B5FA70BDA8B60000FC
:10BB5000AE020020B002002028000146B202002000
:10BB6000C400002088130000203E205345473A546B
:10BB700043505F5345525645525F4D4F44453A53EB
:10BB80004F434B4F50454E0D0A0000000002014646
:10BB9000203E205345473A5443505F434C49454E5D
:10BBA000545F4D4F44453A534F434B4F50454E0D14
:10BBB0000A00000010B500F09BF92930407810BD54
:10BBC000F8B5044600F094F90746293700F090F9DB
:10BBD0000646204645360024AD4D002807D00120FA
:10BBE0002870FEF77BFE387802280DD00DE02C700F
:10BBF0000420FEF773FE307A002811D0A5A003F0D0
:10BC000005F90E22A8A108E06C70307A002807D050
:10BC1000A9A003F0FBF80E22ACA1002002F0CAFAA2
:10BC2000AE48AC840480AE480480EC702C71EC719A
:10BC30006C71EC822C832C846C832C72F8BDF8B56B
:10BC40000746A848002400882546A44E00900FE02F
:10BC50008F48A5492A30025D30880A54401C00995B
:10BC600003F07FFC8A4831802A300555641CE4B219
:10BC7000BC42EDD3864845718574F8BD70B5054664
:10BC800000F036F900F034F9814C002221784E3072
:10BC9000012911D1014640310E46497B00290BD0C4
:10BCA000A17C23462A33002908D0012912D0022979
:10BCB00010D0032927D11AE0002046E7F07BA842E4
:10BCC00021D1608BA18B88421DD31D700120A074EF
:10BCD000607118E040184030C07BA84210D1608BE2
:10BCE000A28B90420CD85D54491CA1740BE0608B70
:10BCF000A18B884200D201220420A074002A02D025
:10BD0000A07CFFF79CFF00206083A07C1DE770B53E
:10BD1000044600F0EDF80546293500F0E9F8024642
:10BD2000687845320021012806D0022807D004286F
:10BD300005D0052812D102E0287802280ED15079CA
:10BD4000012101280AD15248112C02D0132C02D013
:10BD500004E0012100E00021417300210846F4E6DF
:10BD600010B500F0C5F80446293400F0C1F8484881
:10BD7000017801290BD1E17BA27B0902114306D096
:10BD8000C179002901D10121C1710021018410BDB7
:10BD900000B500223E49030004F099F905090B0D96
:10BDA000070408000A634A638A63CA6300BD0A6322
:10BDB00000BD4A6300BD8A6300BDF8B500F098F885
:10BDC000334C0646A0792936484F0025002807D075
:10BDD000E08BB84203D2E08B401CE08300E0E583B7
:10BDE0002079002807D0208BB84203D2208B401C3A
:10BDF000208300E02583608BA18B884202D2608B78
:10BE0000401C6083607900280ED0608BA18B884233
:10BE10000AD3A07C032815D0FFF711FFF07BB17B7C
:10BE20000002084313D0A083E079002816D0F07BED
:10BE3000B17B00020843218C88420BD9208C401C26
:10BE400020840BE00120A070A5746571E6E7FF2057
:10BE5000F530E8E72584E57101202072607A00283A
:10BE600005D0608CB84203D2608C401C6084F8BD61
:10BE70006584F8BD0648C178002906D0C18A1B4AEE
:10BE8000914202D2C18A491CC182012101747047CA
:10BE9000C4000020203E205345473A4154204D6FB6
:10BEA00064650D0A000000005345473A4154204D97
:10BEB0006F64650D0A000000203E205345473A4755
:10BEC00057204D6F64650D0A000000005345473A46
:10BED0004757204D6F64650D0A000000AE02002038
:10BEE000B0020020B202002039180020FFFF00003D
:10BEF000F9487047F8B5F84EF9203070002070709E
:10BF0000B0700125F570044630710F21701D03F0EB
:10BF100090FA0922F1A1701D03F02EFA3575032164
:10BF20007175B175C0227277A823B3770B27EA48E1
:10BF3000F77702262030067042708370C770057153
:10BF4000FF2646718671C671047245728572C2728F
:10BF500003734773E44A8173C11C0A73130A4B735A
:10BF6000431C1A74160A5E740C74260A4E74DF4E53
:10BF70001E75360A5E750C75230A4B7544768476F9
:10BF8000C476047744778477C47720300570D84B23
:10BF9000411C0B701B0A4B70C11C0A70120A4A70BC
:10BFA00044710C268671C571047244728472C47225
:10BFB000047345730A21183003F03BFAC6480A217E
:10BFC0004E3003F036FAC448082760308470C470DD
:10BFD000047147718771C77107723221093003F00C
:10BFE00028FABD482B2180308776C57604774177C3
:10BFF0008177C177B84F0F20A03738700020787054
:10C00000B81C0570290A41703E71310A79710471BA
:10C01000210A41713C72B749401E0172090A4172FE
:10C0200001460A31002003F094FA502038740020B1
:10C03000787438461330BD741E21044603F0F9F9B4
:10C040001322ADA1204603F097F93846313028215C
:10C05000044603F0EEF92022ACA1204603F08CF94F
:10C06000F8BD10B5FEF7FCFBF9239B4A0021012027
:10C0700001F072FD984A002106231732084601F0AC
:10C080006BFD954C607821780002084302D0A749E7
:10C09000884207D1FFF72EFFF9238F4A00210120A4
:10C0A00001F0B5FD0121217503206075A0758A4C52
:10C0B0004034A07A032805D0042803D0FEF7D9FB2A
:10C0C000607110BD617110BDF0B5834E0025403622
:10C0D0007D27BFB02C46FF00F9237F4A00210120B5
:10C0E00001F095FDF9236A460021012001F034FD9D
:10C0F000F9226946784803F06DF8002811D0641CD5
:10C10000707BE4B2002803D0214689A002F07EFEB5
:10C110003846FEF77EF8052C01D2012DDCD13FB068
:10C12000F0BD0125F4E710B503F026F910BD10B5F8
:10C1300003F022F910BD30B589B0674D03A9012085
:10C14000FBF731FD6846427C017CC07B6B4607C330
:10C150006846837B427B017B7FA002F057FE284626
:10C160002330417B007B090201436846407D0090FB
:10C1700001916846037DC27C817C81A002F046FE6D
:10C180006846407F00906846037FC27E817E85A01E
:10C1900002F03CFE6846407E00906846037EC27D09
:10C1A000817D86A002F032FE08A84078009008A8A1
:10C1B00003786846C27F817F86A002F027FE2C4666
:10C1C0002034607A01282DD06420415D601C012953
:10C1D000417C0FD0027C0802A17B104301900091AA
:10C1E000637B227BE17A81A002F010FE607A032853
:10C1F00009D017E00A02007C29460243693186A073
:10C2000002F004FE0EE0E07A002808D1207B00282E
:10C2100005D1607B002802D1A07B002807D088A030
:10C2200002F0F4FD85A002F0F1FD09B030BD89A057
:10C23000F6E710B5284C8C48E17DFBF76FFA8A4889
:10C24000217E401EFBF76AFA8748617E801EFBF75D
:10C2500065FA8548A17EC01EFBF760FA8248E17E40
:10C26000001DFBF75BFA8048217FC01CFBF756FAE4
:10C2700010BD10B5184C86B021460622173168460D
:10C28000FFF751FF214601A804221D310230FFF7BC
:10C290004AFF214603A8042221310230FFF743FF61
:10C2A000214602A8042225310230FFF73CFF214637
:10C2B00004A8042265310230FFF735FF6034E078CE
:10C2C000002801D0022000E0012069468875002086
:10C2D000FBF769FC06B010BD4013002057495A37E0
:10C2E000353053520000000088130000B80B0000E6
:10C2F000581B000052C300006465766963652E77A1
:10C30000697A77696B692E6E657400002F77697A98
:10C3100037353073722F66772F5737353030785F67
:10C320005332455F4170702E62696E00FFFF00005E
:10C33000203E20446576436F6E66696720757064A1
:10C34000617465206661696C65642C205265747245
:10C35000793A2025640D0A002023204D41433A20DC
:10C36000253032583A253032583A253032583A255D
:10C370003032583A253032583A253032580D0A00BA
:10C380002023204950203A2025642E25642E256440
:10C390002E2564202F20506F72743A2025640D0AD8
:10C3A000000000002023204757203A2025642E2536
:10C3B000642E25642E25640D0A00000020232053DE
:10C3C0004E203A2025642E25642E25642E25640DEA
:10C3D0000A000000202320444E533A2025642E25D5
:10C3E000642E25642E25640D0A00000020232044BD
:10C3F000657374696E6174696F6E2049503A2025C7
:10C40000642E25642E25642E2564202F20506F7203
:10C41000743A2025640D0A00202320446573746952
:10C420006E6174696F6E20446F6D61696E3A20258C
:10C4300073202F20506F72743A2025640D0A00007B
:10C440002023232055445020313A31204D6F64651C
:10C450000D0A00002023232055445020313A4E205D
:10C460004D6F64650D0A00000360004610B5FA497F
:10C47000401E884201D9012010BDF8494861F848A2
:10C480000722C3691B021B0A4C042343C36100201B
:10C4900088610A6110BDF34A10B591100120FAF7C6
:10C4A000ECFEFAF7BFFE7D21C90003F05AF8FFF752
:10C4B000DDFF01F0E9FDEC48EC498068086010BD43
:10C4C000EB4910B50A460020FAF7D7FEFAF7AAFEA4
:10C4D0007D21C90003F045F8FFF7C8FF01F0D4FD46
:10C4E000E2480168E04A91604117016010BDF8B56B
:10C4F0000027DD4E0D4604460F70283609E002F095
:10C50000BDFE02462046316802F0DAFE002804D063
:10C51000361D30680028F2D12AE03068002827D084
:10C52000D1482830301A8005060E2B2E07D02C2E2D
:10C5300011D0A11C284602F07BFE3046F8BD207ABF
:10C540000D2815D1607A0A2812D10622A11C28468E
:10C5500002F012FFF1E7002002E02954401CC0B2B3
:10C56000211889780D29F8D12118C9780A2901D014
:10C57000FF20F8BD2F5428184770DEE7F0B59FB0B4
:10C580000F460546FFF7B4FC1590002418A8047068
:10C5900010A884840421384602F04BFFB5A1284638
:10C5A000EAE304A9FFF7A3FF0646FF286AD004A820
:10C5B00002F064FE80B203906846007C002856D0EA
:10C5C000A9490A7888210A425DD04B2E5AD27300BD
:10C5D0007B449B885B009F44B902CC02CC02CF0213
:10C5E000DD029605EE029605FB02070314031D0308
:10C5F000290336034F035A036F03AE04AE04AE049F
:10C60000AE04AE04AE04D403E203EE03FB03240441
:10C610003304400450045D0472047E048A049904C7
:10C62000AF04BC04CB04DA04F305F305EB04F30513
:10C63000F305F305F305F305F305F305F3058905A4
:10C64000550096050A050A050A050A052005200574
:10C65000200520054C054E034E034E034E03700586
:10C660007E054E034E03F305F305A005B1057E4894
:10C67000B100283040580178397040787870BF1C7C
:10C68000169701E0F6E3F7E3330003F020FD4B27B4
:10C690003A64696DE472E4767A7E8186899497A023
:10C6A000E3E3E4AAE3E3ACE2E1E0DFDEDDDCDBDAF6
:10C6B000D9D8D7D6D5D4D3D2D2D1D2D2D0CFCECD4D
:10C6C000CCCBCAC9E4C8C8C8C8C7C7C7C7C6C5C4D1
:10C6D000C3C2C1C0BFBEBDBCBBD1BA00159B159AB9
:10C6E000159915981B7FD27E897E407E009001A807
:10C6F0000EC0159860A1037EC27D384602F094FBFF
:10C7000007E265A164A002F0CFFE002810D064A16A
:10C7100061A002F0C9FE002812D015985EA1807DAC
:10C7200001910090159860A1437D027D1698D9E093
:10C73000159860A1807D00901598437D027D06E0EC
:10C7400015985FA1807D00901598437D027D169815
:10C7500002F06AFBDDE1159A55A13846521D40E111
:10C7600015986030C27802E015982030E9E057A1B2
:10C7700080E1159860308278F9E715984030427B67
:10C78000F5E7159840300278F1E71598413001E05F
:10C790001598433041780078E2E015982130DDE0CB
:10C7A0001598159920300078C97F0190159800914F
:10C7B000837F427F13E0159820300AE015982030DF
:10C7C0000279C178019200918378427807E0159848
:10C7D0006030027AC17901920091837942793CA15B
:10C7E0007FE03E4AC3E715984079002832D015997A
:10C7F0001598097FC07E019100901598837E421D97
:10C800006EE095E18DE179E155E131E12EE12AE13A
:10C8100025E114E10CE106E102E1F8E0E4E0D2E018
:10C8200067E162E153E14AE13EE136E12EE123E1D5
:10C830007BE1C5E0B7E0ACE0A2E09DE097E092E0EC
:10C840008AE084E07FE07AE075E070E06BE054E03D
:10C8500050E04AE0B1E04FE1FFFFFF0000E000E000
:10C8600004ED00E0006CDC022001002000E200E0AA
:10C8700000127A000D0A0000253032583A25303275
:10C88000583A253032583A253032583A2530325805
:10C890003A25303258000000537461626C65000024
:10C8A000446576656C6F700025642E25642E2564C2
:10C8B0002573000025642E25642E256400000000E9
:10C8C00025642E25642E25646465760025640000A9
:10C8D00025642E25642E25642E256400D60B0000C9
:10C8E000FEA1384602F0A0FA13E115982330417BEF
:10C8F000007B35E0159821302BE0159860300179E8
:10C90000002907D0407A002857D0159AF7A1384659
:10C91000693266E015982030827B417B019200915C
:10C92000037BC27A5BE71598403082791FE7159840
:10C930004030C2791BE715984030027A17E7159806
:10C940004030427A13E715984030827A0FE7159805
:10C950002330417C007C03E015982330417D007D2D
:10C960000A02024303E715982030427EFFE615983D
:10C97000DFA12030827E7DE015988030C27EF6E611
:10C9800015988030C17F0091837F427FDAA13846BD
:10C99000DEE615984030807B00280ED0159AD3A192
:10C9A00038464E321DE015984030007E002804D0F5
:10C9B000159ACEA13846583213E02022D2A159E070
:10C9C00081200002A4E030463638D049C0B2085C6D
:10C9D00019A902F0F1F80028F2D010A8828CCCA19D
:10C9E0002BE002F021FA94E030463A38C0B2C74F4B
:10C9F0000290385C02F0B6F800900298385C02F0C1
:10CA0000C0F801460098C007820F0A43E7E715986F
:10CA1000C0A14030037BC27A384602F005FA78E0C4
:10CA20000120800200E0022002F088F90246D6E7E9
:10CA3000002001F0F4FBB9A2ACA11698D1E715983B
:10CA40000121A0300172C1730020FEF722FBB5A3C3
:10CA5000BCA2C1A1169802F0E7F9412058E0159850
:10CA6000A030827C83E61598A03072E7B5A200E082
:10CA7000ACA29EA13846B4E7B948882100780842A4
:10CA800001D0102044E04320400241E0B448882116
:10CA900000780842F7D020203AE0B1488821007899
:10CAA0000842F0D0802033E01598AE4940304079FC
:10CAB00080000A58DDE715984030427957E615980E
:10CAC0002030807A8100A6480C304258D1E7A44833
:10CAD000017888200142D6D0159923314A7B0B7BFF
